:105D47000A202D2D2D2D2D557064617461466C61CF
:095D570073682D2D2D2D2D0A007D
:041687004106B30065
:0C5E3700C2AC8F993099FDC299D2AC2208
:105A24009006A3EBF0A3EAF0A3E9F09006A3E0FB51
:105A3400A3E0FAA3E0F91208DE60189006A3E0A33D
:105A4400E475F0011209AAA9F0FA1208DEFF125E49
:045A54003780D8229D
:065E7F00AE07125E37229F
:1049C60012590BE4F5B19003CAE0B4120830480559
:1049D600C2AF125DB7305505C2551251D6305305D8
:1049E600C25312543A303305C23312218630390885
:1049F600C239125E43125BDE30460E7BFF7A5D796A
:104A0600471210AFC2461232C430430BC24312459E
:104A160031202A03125E78303B14C23B124DD81265
:104A260034E1120203124E36125D8F1244A512585B
:044A360090809022BA
:0D5E2A000A20414C4C20696E6974200A006A
:0D5E1D009000B8E0B4AA03D22722C22722C9
:1036E500C23BC243C245C25BC246C233C252C24894
:1036F500C253C244C250C251C254E4F512C237C2C9
:1037050030C247C24CC242C2499002EDF09002E07D
:10371500F0900498F0C25AC235C2559002ECF09070
:10372500037DF0C23D9003E3F0900390120BBD00C2
:10373500000000E4781AF6F524F525F522F5239026
:103745000384F09002D0F09002D1F09002D2F09074
:1037550002D3F09002D8F09002D9F09002DAF090FE
:1037650002DBF09002DCF09002DDF09002DEF090DA
:1037750002DFF09003C5F0900382F0C232C23178C7
:1037850018F6781776017819F69003ECF07E037F2A
:103795003D7B40FD125AEBC248E4900398F090033C
:1037A500A1F0A3F09003E3F0C244C2347E027FF59A
:1037B5007B28FD125AEB90031F120BBD0000000081
:1037C500900323740AF0A374ABF0A3740AF0A374F6
:0337D500ABF02234
:10272B007B007A02E4FDFCFFFE1246C8404F7B00A3
:10273B007A02E4FDFCFF7E021246C84008E4F5B1C4
:10274B00125E8580F875A7019001FE74019364A554
:10275B007004E493645A60209002ED7455F0E478B1
:10276B001AF6FFFE124412400F9002ED7455F0E47E
:10277B00781AF6FFFE124412E4F5A7803875A7010C
:10278B009003FE74019364A57004E493645A602271
:10279B009002ED7455F0E4781AF6FF7E02124412A3
:1027AB0040109002ED7455F0E4781AF6FF7E021299
:1027BB004412E4F5A7E49002EDF09003D0746CF0B2
:1027CB00A37440F0A37408F0A374F8F0E4A3F0A38F
:1027DB00F0A37470F0A37401F0A37403F0A374FF5F
:1027EB00F0E4A3F0900000E0F520A3E0F5219003C6
:1027FB001F120BBD0000000090001AE0FCA3E0FDCF
:10280B00A3E0FEA3E0FF90032B120BB1900022E09C
:10281B00FFA3E0900335CFF0A3EFF09002F1E52496
:10282B00F0A3E525F0A3E522F0A3E523F090033711
:10283B00E520F0A3E521F03000199003D1E0440826
:10284B00F09003D6E0FF9000AAE0540FFEEF4E90FD
:10285B0003D6F030015E9003D1E04404F09003D72F
:10286B00E0FF9000AAE054F0FEEF4E9003D7F090FB
:10287B0000ABE0FEA3E0FF7C007D32120C41E47B59
:10288B00257A01F9F8120AB0900200120BB19002EE
:10289B0000E0FCA3E0FDA3E0FEA3E0FF7808120B31
:1028AB00779003D8EFF0900200E0A3E0A3E0A3E061
:1028BB009003D9F0E52154052403F50E640560055A
:1028CB00E50EB40A04E4F51622E50E64046005E592
:0B28DB000EB4090475160122751602E8
:0128E60022CF
:10000300C2AF75A83075A91875BA8043BA1175E8DF
:100013006075B810E4F5B475B90875B518D2AF2298
:105DCA00758640758830758CD8758DF6D28AE4F55B
:025DDA0086221F
:10002E0075805075E9D975E1D975901075EA157519
:10003E00E21475A03075EBF875E3E7E4F5B075ECF6
:05004E002575E42522E8
:0F5E0E0075B208000000000000000043B204223B
:10574C0075B7B075BCBBE4F5BDAFBDEFFEADBC7CB1
:10575C0000E42DFFEC3EFE90008BE0FBFD1208F701
:10576C007D641209098FBEAFBDEFFEADBC7C00E4B9
:10577C002DFFEC3EFEAD031208F77D64120909EE15
:03578C00F5BF2244
:1058CE00125E0E12002E125DCA125C01125DA4123F
:1058DE00272B1236E512574C125DEE125A8C5019C8
:1058EE00125A58125359500D125E43123B44121B5A
:0D58FE003C12000322125C2222125C2222C6
:1056C400125E0E12002E7F88125D60D2B21201CBE0
:1056D400125C01125DCA125DA412272B1236E51268
:1056E4005DEE125A8C5019125A58125359500D1219
:1056F4005E43123B44121B3C12000322125C222222
:04570400125C2222EF
:10590B00E4F5A79001FE049364A57004E493645A34
:10591B00600312F400E5B1543870079003CAE0B489
:10592B001214E4F5B19003CAF01256C47BFF7A5EF1
:0D593B00792A1210AF22E4F5B11258CE22E5
:105DEE00D286D284C283C280E49002CEF0A3F02287
:105C8100D2B57F88125D60C2B57F88125D60D2B5E2
:0D5C91007F88125D60C2B57F88125D6022C1
:105C9E00D2A67F88125D60C2A67F88125D60D2A6F2
:0D5CAE007F88125D60C2A67F88125D6022B3
:105CBB00D2A77F88125D60C2A77F88125D60D2A7D2
:0D5CCB007F88125D60C2A77F88125D602295
:105CD800D2877F88125D60C2877F88125D60D28715
:0D5CE8007F88125D60C2877F88125D602298
:03005300024D1A41
:104D1A00C0E0C0F0C083C082C0D075D000C000C05F
:104D2A0001C002C003C004C005C006C00730DF0FBF
:104D3A00C2DF203503305A05125E0ED255D25330E7
:104D4A00DC0DC2DC203503305A05125E0ED2553016
:104D5A00D802C2D8D007D006D005D004D003D002DA
:0F4D6A00D001D000D0D0D082D083D0F0D0E032B2
:03002B0002530E6F
:10530E00C0E0C083C082C0D0758640C28A758CD87A
:10531E00758DF6C28F758600D2430512E512C394C1
:10532E00284005751200D23B900498E004F0C39417
:10533E00084007D29C900496E4F0758640D28A7598
:0B534E008600D0D0D082D083D0E032A7
:03005B00025D2D16
:105D2D00C0E0C083C08230E90AC2E9D2849006B5D2
:0A5D3D007401F0D082D083D0E03270
:10005E000A20B5CD38CEBBA3BA302C6243544F3DE7
:10006E0025782C624146455F53433D25782C6241ED
:10007E0046455F4F563D2578E62C625554443D2546
:10008E00782C625554433D25782C624F54443D25BF
:10009E00782C624F54433D257820B8DF38CEBB20F4
:1000AE00302C302C302C624F4344323D25782C625C
:1000BE004F43443D25782C624F43433D25782C62B7
:1000CE0055563D25782C6248563D25782C0A000A57
:1000DE002043686B4D6F7353746174757328766F1C
:1000EE0069642975695061636B5374617475733DEE
:1000FE0025782C624348474D4F533D25782C62445A
:10010E0053474D4F533D2578200A000A20B5A5B41C
:10011E00CEB5E7C1F7D6B54146452E736943757224
:10012E0072203D202564200A000A20B5E7C1F72D74
:10013E002D2D2D2D2D2D2D2D2D2D2D2D2D2D2D739B
:10014E006C4361646343757272656E74202D2D2D40
:10015E002D2D2D2D2D2D2D2D2D2D2D2D2D2D2D3DB1
:10016E0020256C64200A000A20C6BDBEF9B5E7C181
:10017E00F7204375727250726F6365737328766FD2
:10018E006964293A20736C436164634375724176E6
:10019E006572616765203D20256C64200A000A2087
:1001AE00B3E4B5E7C6F7D2D1C1ACBDD30A000A207D
:0D01BE00C7E5BFD54F4956205549560A00E8
:1028E700201852C3900063E0950C900062E0950BAE
:1028F7005026900066E075F014A4FFAEF09002D069
:10290700E004F0C39FEE6480F87480984079D21891
:10291700E4F09002D1F0806FD3900065E0950C90C1
:102927000064E0950B40609002D0E0D394004057DC
:10293700E014F08052D3900065E0950C900064E0BD
:10294700950B4029900067E075F014A4FFAEF09056
:1029570002D1E004F0C39FEE6480F87480984027AA
:10296700C218E49002D0F09002D1F0801AC3900010
:1029770063E0950C900062E0950B500B9002D1E05C
:1029870094004003E014F020196AD3900075E09595
:102997000A900074E095094040900078E075F014C3
:1029A700A4FFAEF09002D2E004F0C39FEE6480F87B
:1029B7007480985003022A4DD219E4F09002D3F0A4
:1029C700D230C2429003EBF09003D1E04401F07C97
:1029D700037DD17F041253A422C3900077E0950AA8
:1029E700900076E09509505E9002D2E09400405640
:1029F700E014F022C3900077E0950A900076E09506
:102A0700095028900079E075F014A4FFAEF0900209
:102A1700D3E004F0C39FEE6480F87480984027C227
:102A270019E49002D2F09002D3F022D3900075E01F
:102A3700950A900074E09509400C9002D3E0D39476
:072A4700004003E014F0223F
:1013A90020105B90008EE0FEA3E0FF9002E8E0FCD5
:1013B900A3E0FDD39FEC9E4029900096E075F028AC
:1013C900A4FFAEF09002D8E004F0C39FEE6480F869
:1013D9007480985003021461D210E4F09002D9F09D
:1013E9008076900090E0FEA3E0FFC3ED9FEC9E5055
:1013F900679002D8E09400405FE014F0805A9000B2
:1014090090E0FEA3E0FF9002E8E0FCA3E0FDC39FAB
:10141900EC9E5029900096E075F028A4FFAEF0905C
:1014290002D9E004F0C39FEE6480F87480984028E4
:10143900C210E49002D8F09002D9F0801B90008E7F
:10144900E0FEA3E0FFD3ED9FEC9E400C9002D9E0B3
:10145900D394004003E014F020125C900092E0FE67
:10146900A3E0FF9002E5E0FCA3E0FDC39FEC9E50E2
:1014790029900096E075F028A4FFAEF09002DAE01A
:1014890004F0C39FEE6480F8748098500302151924
:10149900D212E4F09002DBF08076900094E0FEA393
:1014A900E0FFD3ED9FEC9E40679002DAE0D3940011
:1014B900405EE014F08059900094E0FEA3E0FF90B4
:1014C90002E5E0FCA3E0FDD39FEC9E402990009645
:1014D900E075F028A4FFAEF09002DBE004F0C39FB2
:1014E900EE6480F87480984027C212E49002DAF022
:1014F9009002DBF0801A900092E0FEA3E0FFC3EDBA
:101509009FEC9E500B9002DBE094004003E014F046
:1015190020115B900099E0FEA3E0FF9002E8E0FC57
:10152900A3E0FDD39FEC9E4029900096E075F0283A
:10153900A4FFAEF09002DCE004F0C39FEE6480F8F3
:1015490074809850030215D1D211E4F09002DDF0B5
:10155900807690009BE0FEA3E0FFC3ED9FEC9E50D8
:10156900679002DCE09400405FE014F0805A90003C
:101579009BE0FEA3E0FF9002E8E0FCA3E0FDC39F2F
:10158900EC9E5029900096E075F028A4FFAEF090EB
:1015990002DDE004F0C39FEE6480F874809840286F
:1015A900C211E49002DCF09002DDF0801B900099FA
:1015B900E0FEA3E0FFD3ED9FEC9E400C9002DDE03E
:1015C900D394004003E014F020135A90009DE0FEEC
:1015D900A3E0FF9002E5E0FCA3E0FDC39FEC9E5071
:1015E90028900096E075F028A4FFAEF09002DEE0A6
:1015F90004F0C39FEE6480F8748098500302168645
:10160900D213E4F09002DFF02290009FE0FEA3E005
:10161900FFD3ED9FEC9E40659002DEE0D39400403D
:101629005CE014F02290009FE0FEA3E0FF9002E549
:10163900E0FCA3E0FDD39FEC9E4028900096E07566
:10164900F028A4FFAEF09002DFE004F0C39FEE643F
:1016590080F87480984026C213E49002DEF090026C
:10166900DFF02290009DE0FEA3E0FFC3ED9FEC9E1A
:0E167900500B9002DFE094004003E014F022DA
:102A4E00E4900200F0D228D229201403301602C2DC
:102A5E002820111B201318201915201B12201C0FC3
:102A6E0020150C302103200F06204C03301602C215
:102A7E0029202B1420100F20120C201809201A06C2
:102A8E00302005300E02C228201B0C201C092015F8
:102A9E0006303005204202C2287BFF7A00795EE5BF
:102AAE00225440C413135403FF900208E4F0A3EF22
:102ABE00F0E5225420C4135407FFA3E4F0A3EFF073
:102ACE00E5225410C4540FFFA3E4F0A3EFF0E52267
:102ADE005408131313541FFFA3E4F0A3EFF0E522E1
:102AEE0054041313543FFFA3E4F0A3EFF0E5225474
:102AFE0002C313FFA3E4F0A3EFF0E5225401FFA3FA
:102B0E00E4F0A3EFF0E5235410FFE4C4F854F0C84A
:102B1E0068FEEFC4540F48FFA3EEF0A3EFF07E0063
:102B2E00E52354087803CEC313CE13D8F9FF9002D1
:102B3E0018EEF0A3EFF07E00E52354047802CEC326
:102B4E0013CE13D8F9FF90021AEEF0A3EFF0E5239F
:102B5E005402FFE4C313FEEF13FFA3EEF0A3EFF056
:102B6E00E4A3F0E5235401A3F01210AF7BFF7A002B
:102B7E0079DD900208E524F0A3E525F0E4A3F0E565
:102B8E00255401A3F0E5255402FFE4C313FEEF1311
:0A2B9E00FFA3EEF0A3EFF01210AF5A
:012BA800220A
:10578F003028099003D2E04401F080079003D2E063
:10579F0054FEF03029099003D2E04402F0800790C4
:1057AF0003D2E054FDF0900384E0FF9003D2E0FEBB
:1057BF006F600E900384EEF07C037DD27F05125351
:0257CF00A42212
:1041A600200203024242201B06201503301C5890B1
:1041B6000072E075F028A4FFAEF09003C3E475F03A
:1041C60001120994FCD3E5F09FEC9E403AC237E415
:1041D6009003C6F09003C3F0A3F0C21B900385F0D2
:1041E600C21C301522C2159003D1E04480F07C0336
:1041F6007DD17F041253A49003D1E0547FF07C0359
:104206007DD17F041253A4A214721A502F9000720B
:10421600E075F028A4FFAEF09003C1E475F001123A
:104226000994FCD3E5F09FEC9E4011E49003C1F0A5
:0D423600A3F0C21AC214C24790039DF022EB
:103A7900E4900200F020374F301906D24CD2498029
:103A89001F30491C201919C249D237E49003C6F0E6
:103A99009003D1E04402F07C037DD17F041253A44A
:103AA900201B09201506201C03023B35D237D24CB6
:103AB900E49003C6F09003D1E04402F07C037DD189
:103AC9007F041253A480657C037DCF7F021253EFDC
:103AD9009003CFE020E155900087E075F005A4142C
:103AE900FF9003C6E004F0C39F4041C237C24CC2F5
:103AF90030C21BC21CE4F09003D1E054FDF07C03FA
:103B09007DD17F041253A4301522C2159003D1E050
:103B19004480F07C037DD17F041253A49003D1E04B
:103B2900547FF07C037DD17F041253A4A24CE4336B
:0A3B3900FF900200E04F900383F0BC
:013B4300225F
:103E5100E4900200F03030427C037DCF7F021253A8
:103E6100EF9003CFE030E032900087E075F005A4D9
:103E7100FFAEF09003EBE004F0C39FEE6480F874B2
:103E810080984016C230D242E4F09003D1E054FE53
:103E9100F07C037DD17F041253A43047677C037DFE
:103EA100CF7F021253EF9003CFE020E057900087BD
:103EB100E075F005A4FFAEF090039DE004F0C39F10
:103EC100EE6480F8748098403BC247C21AE4F090D7
:103ED10003D1E054FEF07C037DD17F041253A43062
:103EE1001522C2149003D1E04480F07C037DD17F80
:103EF100041253A49003D1E0547FF07C037DD17F61
:043F0100041253A4AF
:013F05002299
:1034E1003031030235E4202058C3900069E0950C87
:1034F100900068E0950B503B90006AE0FEA3E0FF6E
:10350100EE3395E0FDFC90031FE0F8A3E0F9A3E0A2
:10351100FAA3E0FBD3120B50501990006CE0FF901E
:1035210002D4E004F0C39F404ED220E4F09002D5D3
:10353100F080449002D4E0D39400403BE014F0804A
:1035410036D3900069E0950A900068E09509401B28
:1035510090006CE0FF9002D5E004F09F4019C2207A
:10356100E49002D4F09002D5F0800C9002D5E0D323
:1035710094004003E014F0202133D390007BE095C8
:103581000A90007AE09509401790007CE0FF9002D4
:10359100D6E004F09F404CD221E4F09002D7F02213
:1035A1009002D6E0D39400403AE014F022C3900098
:1035B1007BE0950A90007AE09509501B90007CE031
:1035C100FF9002D7E004F0C39F4018C221E49002AB
:1035D100D6F09002D7F0229002D7E0D394004003B6
:0435E100E014F022E0
:1033D300201A6690006DE0FCA3E0FDA3E0FEA3E0ED
:1033E300FF90038AE0F8A3E0F9A3E0FAA3E0FBD39C
:1033F300120B504038900071E075F008A4FFAEF056
:103403009003F6E004F0D39FEE6480F87480984054
:1034130028D21AE4F0D24790039DF09003D1E04400
:1034230001F07C037DD17F041253A4800C9003F63A
:10343300E0D394004003E014F0201B5090007DE0A3
:10344300FCA3E0FDA3E0FEA3E0FF90038AE0F8A362
:10345300E0F9A3E0FAA3E0FBC3120B505022900063
:1034630081E075F014A4FFAEF09003F7E004F0D30D
:103473009FEE6480F87480984012E4F0D21B800CB5
:103483009003F7E0D394004003E014F0201C4E9027
:103493000082E0FCA3E0FDA3E0FEA3E0FF90038A2B
:1034A300E0F8A3E0F9A3E0FAA3E0FBC3120B50504A
:1034B30020900086E025E0FFE433FE900385E004DE
:1034C300F0D39FEE6480F87480984011E4F0D21C2E
:0E34D30022900385E0D394004003E014F02221
:10218600900201120BBD000000007C037DBF7F2A78
:102196001253EF9003BFE0FEA3E0FFEE30E40944E4
:1021A600E09003BFF0A3EFF07BFF7A01791990036B
:1021B600BFE0FFA3E0900208CFF0A3EFF01210AF4C
:1021C6009000B2E0FEA3E0FFC39003C0E09FFF9043
:1021D60003BFE09EFE3395E0FDFC7B187AFC79FF99
:1021E60078FF120A25C006C0079000B0E0FEA3E003
:1021F600FFFBAA06EA3395E0F9F8D007D006125796
:102206000890038A120BB17BFF7A01793790038A13
:10221600E0FCA3E0FDA3E0FEA3E0FF900208120BA2
:10222600B11210AF90038AE0FCA3E0FDA3E0FEA389
:10223600E0FF9003ECE025E025E0243DF582E43460
:1022460003F583120BB19003ECE004F0C394044051
:1022560002E4F09003ECE0706A900200F090020055
:10226600E0FFC39404503FA3E0F8A3E0F9A3E0FA2B
:10227600A3E0FBEF25E025E0243DF582E43403F5F9
:1022860083E0FCA3E0FDA3E0FEA3E0FFEB2FFFEA63
:102296003EFEE93DFDE83CFC900201120BB19002C6
:1022A60000E004F080B7E47B04FAF9F8900201E05C
:1022B600FCA3E0FDA3E0FEA3E0FF12570890039005
:1022C600120BB17BFF7A017975900390E0FCA3E0D5
:1022D600FDA3E0FEA3E0FF900208120BB11210AFBF
:1022E600C22BC22A900028E0FEA3E0FFC3E49FFFB2
:1022F600E49EFE3395E0FDFC900390E0F8A3E0F940
:10230600A3E0FAA3E0FBC3120B50501ED22B53A836
:10231600EF900390E0FCA3E0FDA3E0FEA3E0FF90B6
:10232600031F120BB143A8108050900028E0FEA3B3
:10233600E0FFEE3395E0FDFC900390E0F8A3E0F9B2
:10234600A3E0FAA3E0FBD3120B50401ED22A53A8F7
:10235600EF900390E0FCA3E0FDA3E0FEA3E0FF9076
:10236600031F120BB143A810801053A8EF90031F50
:0D237600120BBD0000000043A8101233D36D
:012383002237
:104E36009002027403F0900202E0FFD3940B504AF2
:104E46007C027D001253EF900202E0FF7E007B01A0
:104E560024CDF9EE3403FA1208DEFD900200E0B527
:104E6600051374CE2FF9EE3403FA1208DEFF900212
:104E760001E06F600C900202E064076004125A8C35
:0A4E860022900202E02402F080AC4A
:014E900022FF
:10543A007C037DCDE4FF1253EF9003CEE0FF30E111
:10544A0002D233EF30E002D2399003CDE0FF30E3ED
:10545A000CD2159002F1E524F0A3E525F0EF30E235
:10546A000ED214D2479002F1E524F0A3E525F0907C
:0A547A0003CEE030E203125A8C2248
:10535900C25C900200E0FF04F0EFC3943C50397F37
:1053690005125D607C037DCDE4FF1253EF9003CEFF
:10537900E030E0DE900200E0FF04F0EFC3943C501F
:10538900177F05125D607C037DCDE4FF1253EF901A
:0A53990003CEE030E1DED25CA25C3E
:0153A30022E7
:103B4400C3900063E0950C900062E0950B5002D2A4
:103B540018D3900075E0950A900074E09509401B15
:103B6400D219D230C242E49003EBF09003D1E04486
:103B740001F07C037DD17F041253A490008EE0FEFB
:103B8400A3E0FF9002E8E0FCA3E0FDD39FEC9E409D
:103B940002D210900092E0FEA3E0FF9002E5E0FA6A
:103BA400A3E0FBC39FEA9E5002D212900099E0FE6C
:103BB400A3E0FFD3ED9FEC9E4002D21190009DE064
:103BC400FEA3E0FFC3EB9FEA9E5002D2131252C041
:103BD4009002EFE0B4010E7BFF7A0179AC1210AFD2
:103BE40012594880127BFF7A0179BC1210AFE4901D
:103BF400027CF090027DF0125B961242E0122A4E93
:073C040012578F120CCD22B4
:10453100203206203C031228E71213A9202A4590B5
:1045410003C7E004F0C39404403FE4F0D286124F65
:10455100969002EFE0B40119208605E52520E01AC6
:10456100900388E0B401051237D8800E12594880B3
:1045710009E490027CF090027DF09002EFE090035C
:1045810088F08005E49003C7F0123CD1125639122D
:1045910042E0122A4E12578F120CCD9002F3E522FF
:1045A100F0A3E523F09002F1E524F0A3E525F01254
:0945B10041A6123A79123E512292
:105C22009003DA7433F07C037DDA7F0D1253A49073
:105C320003D1E04420F07C037DD17F041253A422DF
:102F5C0030310302307E20030302307EE49003A163
:102F6C00F0A3F0C3900063E0950C900062E0950B29
:102F7C00500330181ED3900065E0950C900064E06F
:102F8C00950B400320180C20100920120620110369
:102F9C00301308C23CE4900398F022C39000A3E0E5
:102FAC00950C9000A2E0950B4003023077C3E50C22
:102FBC00950AFFE50B9509FED39000A5E09F9000C4
:102FCC00A4E09E40030230779000A6E0FEA3E0FF51
:102FDC00EE3395E0FDFC90031FE0F8A3E0F9A3E0CD
:102FEC00FAA3E0FBC3120B505003023077203C06CF
:102FFC00900398E004F09000A8E075F00AA4FF900C
:10300C000398E0C39FE5F06480F87480984063AD4A
:10301C0016E516250EFFE433FEEDC39FEE6480F833
:10302C007480985043ED25E024F5F582E43402F5E4
:10303C0083E0FEA3E0C3950AFFEE9509FED3900052
:10304C00A5E09F9000A4E09E501B74017E00A80593
:10305C00088005C333CE33CED8F9FF9003A1E04EE0
:10306C00F0A3E04FF00D80A9D23C22C23CE49003C7
:02307C0098F0CA
:01307E00222F
:105CF500E49003D4F07C037DD47F071253A4E49091
:0D5D050003D5F07C037DD57F081253A42246
:105BDE00C25CC3E50A94B4E5099400500FD25C7818
:105BEE001906E6C3940A4008D2168004E47819F622
:025BFE00A25CA7
:015C00002281
:103D93007817E624FE7003023E21147003023E26C8
:103DA300147003023E35147003023E46240460037C
:103DB300023E50203206203C03023E503041159013
:103DC30003A1E05455FFA3E054559006A9CFF0A3F7
:103DD300EFF080139003A1E054AAFFA3E054AA904C
:103DE30006A9CFF0A3EFF09006A9E0FEA3E07805C3
:103DF300CEC313CE13D8F99003D4F07C037DD47FC4
:103E0300071253A49006A9E0A3E09003D5F07C0326
:103E13007DD57F081253A478177602D23122781702
:103E2300760322125BDE4025125CF578177604B226
:103E33004122125BDE40057817760522781776015A
:0D3E4300B2412278177601C232C23CC23172
:013E5000224F
:105D1200300517781806E6C39428400EE4F6D2320E
:0B5D22009003A17403F0A374FFF022B3
:10424300E49006A7F0A3F0C2679006A6E516F0E592
:1042530016250EFFE433FE9006A6E0C39FEE6480AE
:10426300F87480985041E0FF25E024A3F582E434FC
:1042730003AD82FCEF25E0240EFF1253EF9267900B
:1042830006A6E025E024A3F582E43403F583E0FEEB
:10429300A3E0FF9006A8E02FF09006A7E03EF09081
:1042A30006A6E004F080A83067309006A7E0FEA3DE
:1042B300E0FF7C0E7DD8120C41C006C0079003EDD1
:1042C300E0FEA3E0FFFBAA06E4F9F8D007D006124C
:0C42D3000AB09000AEEEF0A3EFF0A2677E
:0142DF0022BC
:10437C00C2687C027DCA7F2A1253EF92687F50126A
:10438C005D607C027DCC7F2A1253EF92683068739B
:10439C009002CCE0FEA3E0FF9002CBE02FFF900256
:1043AC00CAE03EFE7C007D0212095E9003BFEEF077
:1043BC00A3EFF0EE30E40A9003BFE044E0F0A3E09A
:1043CC00F09000B2E0FEA3E0FFC39003C0E09FFFBB
:1043DC009003BFE09EFE3395E0FDFC7B187AFC79E0
:1043EC00FF78FF120A25900399E0F8A3E0F9A3E007
:1043FC00FAA3E0FB125708EF4E60089000B0EEF005
:05440C00A3EFF0A2681F
:014411002288
:10494E00C2697C037DF87F2A1253EF92697F501261
:10495E005D607C037DFA7F2A1253EF9269306955B0
:10496E009003F8E0FEA3E0FFEE30E40944E090038C
:10497E00F8F0A3EFF09003FAE0FEA3E0FFEE30E4D0
:10498E000944E09003FAF0A3EFF09003FAE0FEA3DF
:10499E00E0FF9003F9E02FFF9003F8E03EFE7C006D
:1049AE007D0212095E9003BFEEF0A3EFF09000B20D
:0749BE00EEF0A3EFF0A26987
:0149C50022CF
:104E9100C26A7C037DB77F221253EF926A306A4463
:104EA1009003B7E0FEA3E0FF1218E6C39003C9E048
:104EB1009FFF9003C8E09EFE9000B4E0FCA3E0FDDC
:104EC100C3EF9DFDEE9CFCC3ED9496EC6480948051
:104ED1005012ED946AEC6480947F40089000B4EE27
:064EE100F0A3EFF0A26A4D
:014EE70022A8
:104EE800C26B7C037DB97F241253EF926B306B4405
:104EF8009003B9E0FEA3E0FF1218E6C39003CCE0EC
:104F08009FFF9003CBE09EFE9000B6E0FCA3E0FD7F
:104F1800C3EF9DFDEE9CFCC3ED9496EC64809480F9
:104F28005012ED946AEC6480947F40089000B6EECD
:064F3800F0A3EFF0A26BF4
:014F3E002250
:10585200C26C9003F5E09003EAF09003F4E0900349
:10586200E9F09003F3E09003E8F09003F2E0900394
:10587200E6F09003F1E09003E5F09003F0E090038E
:0D588200E4F0124D79926CD23ED24EA26C31
:01588F0022F6
:103C0B00D26D9003C5E030E0101242434004C26D08
:103C1B008007900382E04403F09003C5E030E2108C
:103C2B00124E914004C26D8007900382E04404F071
:103C3B009003C5E030E310124EE84004C26D8007DC
:103C4B00900382E04408F09003C5E030E410124387
:103C5B007C4004C26D8007900382E04410F0900317
:103C6B00C5E030E51012494E4004C26D8007900349
:103C7B0082E04420F09003C5E030E7101258524028
:103C8B0004C26D8007900382E04480F030070B90F4
:103C9B000382E0B4BF1A80098016900382E0B43F20
:103CAB000FE4900382F0D2279000B874AAF0D246AA
:103CBB00E49003C5F0D25B306D06C29C75995A2215
:053CCB00C29C7599FF89
:013CD00022D1
:102CEF0080B678FA71C46B0C64C760C25B2755EB72
:102CFF0051074C7449A2458441AA3E0D3AAB384A5C
:102D0F00354132682FBB2D382B7A293627152514DC
:102D1F00233121C320101E761CF41B881A79192F1A
:102D2F0017F816D215BC14DD13E212F41213113E6C
:102D3F0010970FD50F1E0E700DCC0D3E0CA90C1B4E
:102D4F000B940B140AA80A3309C5095B08F7089DF1
:102D5F00084207EB0798074A070406BC06770636B2
:102D6F0005F705BD0584054D051904E804B9048B65
:102D7F0004600436040E03E803C303A0037E035E5E
:102D8F00033F0321030402E902CF02B6029E02862B
:102D9F000270025B02470232021F020D01FC01EBBF
:102DAF0001DA01CB01BC01AE01A0019201850179CD
:102DBF00016D01620156014B01410137012E0124C2
:102DCF00011B0113010B010300FB00F300EC00E5F5
:102DDF0000DF00D800D200CC00C600C000BA00B59A
:102DEF0000B000AB00A700A2009D009900950091D4
:102DFF00008D008900850082007F007B00780075C0
:102E0F000072006F006C0069006600640061005F73
:102E1F00005C005A0058005600530051004F004EFE
:022E2F00004C55
:0418E6008F828E83DC
:1018EA007E037FE8AD82AC83120C41C006C007AE0E
:1018FA0083AF82C3E49FFF74109EFEAB07FAE4F93C
:10190A00F8D007D006120AB0900203120BB1E47F96
:10191A000AFEFDFC900203E0F8A3E0F9A3E0FAA3B3
:10192A00E0FBD3120B664022900203E0FCA3E0FD29
:10193A00A3E0FEA3E0940AFFEE9400FEED9400FDFE
:10194A00EC9400FC900203120BB1902CEFE493FE8E
:10195A00740193FFE4FCFD900203E0F8A3E0F9A30D
:10196A00E0FAA3E0FBC3120B66400D900201740873
:10197A00F0A374B7F0021B33902E2FE493FE740188
:10198A0093FFE4FCFD900203E0F8A3E0F9A3E0FA78
:10199A00A3E0FBD3120B66500D900201740EF0A364
:1019AA0074F7F0021B33900386E0900200F075F0A2
:1019BA0002A424EFF582E5F0342CF583E493FE7457
:1019CA000193FFE4FCFD900203E0F8A3E0F9A3E031
:1019DA00FAA3E0FBD3120B66404B900386E0149007
:1019EA000200F0900200E0FFC394005003021A7D47
:1019FA0075F002EFA424EFF582E5F0342CF583E4C8
:101A0A0093FE740193FFE4FCFD900203E0F8A3E067
:101A1A00F9A3E0FAA3E0FBD3120B6640569002004A
:101A2A00E014F080BE900386E004900200F0900279
:101A3A0000E0FFC394A0503575F002EFA424EFF53F
:101A4A0082E5F0342CF583E493FE740193FFE4FC01
:101A5A00FD900203E0F8A3E0F9A3E0FAA3E0FBD3C8
:101A6A00120B665008900200E004F080C190020058
:101A7A00E014F0900200E0900386F075F002A424CE
:101A8A00EFF582E5F0342CF583E493FE740193FFBD
:101A9A00E4900203E0F8A3E0F9A3E0FAA3E0FBC3B1
:101AAA00EF9BFFEE9AFEE499FDE498FCE47B0AFAC8
:101ABA00F9F8120A25C004C005C006C00790020042
:101ACA00E0FF75F002A424F1F582E5F0342CF583E9
:101ADA00E493FC740193FD75F002EFA424EFF58200
:101AEA00E5F0342CF583C37401939DFFE4939CFEC7
:101AFA00AB07FAE4F9F8D007D006D005D004120AE9
:101B0A00B0AB07AA06900386E024CEFFE434FFFEBA
:101B1A007C007D0A1208F7EF2BFFEE3ACF24ABCFF9
:101B2A00340A900201F0A3EFF0900201E0FEA3E074
:011B3A00FFAB
:011B3B002287
:1038C6009003B7E0FEA3E0FF1218E69000B5E02FE4
:1038D600FF9000B4E03EFE53A8EF900323F0A3EF61
:1038E600F043A8109003BBE0FEA3E0FF7C067D57E3
:1038F600120C41E47BE87A03F9F8120AB0EF244788
:10390600FFE43EFE53A8EF900327F0A3EFF043A891
:1039160010E50ED39405402D9003BDE0FEA3E0FF15
:103926007C067D57120C41E47BE87A03F9F8120A0B
:10393600B0EF2447FFE43EFE53A8EF900329F0A31F
:10394600EFF043A810900323E0FCA3E0FD9002E50E
:10395600ECF0A3EDF09002E8ECF0A3EDF0300D3FB3
:103966009003B9E0FEA3E0FF1218E69000B7E02F3F
:10397600FF9000B6E03EFE53A8EF900325F0A3EFBC
:10398600F043A810D39002E6E09F9002E5E09E4047
:0F39960006EEF0A3EFF0229002E8EEF0A3EFF0C0
:0139A50022FF
:102BA900900201120BBD00000000900205120BBD3E
:102BB90000000000E4F50BF50C750917750A709013
:102BC9000200E516F0E50E2516FFE433FE9002003B
:102BD900E0FDC39FEE6480F87480984003022CD214
:102BE900ED25E024A3F582E43403F583E0FEA3E0B8
:102BF900FF7C0E7DD8120C41C006C0079000AEE0E4
:102C0900FEA3E0FFFBAA06E4F9F8D007D006120AF2
:102C1900B0900205120BB1AE0BAF0CE4FCFD9002B3
:102C290005E0F8A3E0F9A3E0FAA3E0FBD3120B66F1
:102C3900400F900205E0A3E0A3E0FEA3E08E0BF5B0
:102C49000CAE09AF0AE4FCFD900205E0F8A3E0F937
:102C5900A3E0FAA3E0FBC3120B66500F900205E054
:102C6900A3E0A3E0FEA3E08E09F50A20315253A8A0
:102C7900EF900205E0A3E0A3E0FEA3E0FF900200CD
:102C8900E025E024F5F582E43402F583EEF0A3EFC4
:102C9900F043A810900201E0FCA3E0FDA3E0FEA32D
:102CA900E0FFA3E0F8A3E0F9A3E0FAA3E0FBEF2B30
:102CB900FFEE3AFEED39FDEC38FC900201120BB142
:102CC900900200E004F0022BCE20311953A8EF90B6
:102CD9000201E0A3E0A3E0FFA3E090031DCFF0A36E
:052CE900EFF043A8100C
:012CEE0022C3
:1045BA00D25C900200E516F0E50E2516FFE433FE04
:1045CA00900200E0C39FEE6480F87480985026E061
:1045DA00FF25E024A3F582E43403AD82FCEF25E055
:1045EA00240EFF1253EF4005C25CA25C2290020027
:1045FA00E004F080C37C037DB77F221253EF4005AD
:10460A00C25CA25C227C037DB97F241253EF400571
:10461A00C25CA25C227C037DBB7F261253EF40055D
:10462A00C25CA25C227C037DBD7F281253EF400549
:07463A00C25CA25C22A25C3D
:014641002256
:0C5E43001245BA50061238C6122BA922D4
:1051D600C255205A03303534125E0EC235C25AE427
:1051E6009002ECF090037DF0F5121200039003D0CC
:1051F600746CF07C037DD07F031253A49003D1E03E
:105206004410F07C037DD17F041253A4E49002EC99
:0E521600F090037DF0C234C25A900498F0224A
:065E8500125C22C2B222F1
:1050E7009003D1E054EFF07C037DD17F041253A4E9
:1050F7009003D07470F07C037DD07F031253A4908B
:10510700027CE0702B90027DE0702590027EE070BB
:105117001F90027BE070199006B5E07013C2AF755F
:10512700A81075A90875BA1043BA80D2AF125E4F9E
:015137002255
:1044A500303408304805C234D23522301614900015
:1044B5002AE0FF90037DE004F0C39F406EEFF0D249
:1044C500352220445D202A50202B4D3019149000B0
:1044D5002AE0FF90037DE004F0C39F404EEFF0D249
:1044E5003522E490037DF0A21272107218721A72CE
:1044F5001172137219721B721C721572144013908B
:10450500002AE0FF9002ECE004F09F401EEFF0D29D
:104515005A22E49002ECF022E49002ECF090037D44
:0C452500F022E49002ECF090037DF02204
:10589000205A29203526C2AFA253723D723372546A
:1058A0007246725572527239723B400D9003CAE0D3
:1058B00064126005D2AF125E4FD2AF2230350412AF
:0E58C0005E8522305A07D286D2841250E7222B
:105C42009003D1E054EFF07C037DD17F041253A482
:105C52009003D07470F07C037DD07F031253A42292
:10509500000000300062007400000089008E009955
:1050A50000A2000000AA00AE00FE00000000000003
:1050B500000000000020005000820094000000A9BC
:1050C50000AE00B900C2000000CA00CE011E0000FB
:1050D50000000000000000000007050A090649530A
:0250E500500079
:10168B004106990041069A00C16E6100049900C1A0
:10169B00814001C0804101C0804100C1814001C037
:1016AB00804100C1814000C1814001C0804101C027
:1016BB00804100C1814000C1814001C0804100C117
:1016CB00814001C0804101C0804100C1814001C007
:1016DB00804100C1814000C1814001C0804100C1F7
:1016EB00814001C0804101C0804100C1814000C1E7
:1016FB00814001C0804101C0804100C1814001C0D7
:10170B00804100C1814000C1814001C0804101C0C6
:10171B00804100C1814000C1814001C0804100C1B6
:10172B00814001C0804101C0804100C1814000C1A6
:10173B00814001C0804101C0804100C1814001C096
:10174B00804100C1814000C1814001C0804100C186
:10175B00814001C0804101C0804100C1814001C076
:10176B00804100C1814000C1814001C0804101C066
:10177B00804100C1814000C1814001C0804100C156
:10178B00814001C0804101C0804100C181406100A6
:10179B00059900C0C101C30302C2C60607C705C530
:1017AB00C404CC0C0DCD0FCFCE0E0ACACB0BC9097E
:1017BB0008C8D81819D91BDBDA1A1EDEDF1FDD1D8E
:1017CB001CDC14D4D515D71716D6D21213D311D1BE
:1017DB00D010F03031F133F3F23236F6F737F5350E
:1017EB0034F43CFCFD3DFF3F3EFEFA3A3BFB39F93E
:1017FB00F83828E8E929EB2B2AEAEE2E2FEF2DED0E
:10180B00EC2CE42425E527E7E62622E2E323E1217D
:10181B0020E0A06061A163A3A26266A6A767A5658D
:10182B0064A46CACAD6DAF6F6EAEAA6A6BAB69A9FD
:10183B00A86878B8B979BB7B7ABABE7E7FBF7DBD0D
:10184B00BC7CB47475B577B7B67672B2B373B1713D
:10185B0070B050909151935352929656579755950D
:10186B0094549C5C5D9D5F9F9E5E5A9A9B5B9959BD
:10187B005898884849894B8B8A4A4E8E8F4F8D4D8D
:10188B004C8C4484854587474686824243834181FD
:02189B0080408B
:105C010075C454E4F587759850759DFF759C64754E
:105C11009E04759A0A759BFF900496F0900498F083
:015C21002260
:105B1900E4FF74022FF582E43404F583E0FEEF908C
:105B290050DD93FDEE6D6006C29C7599FF220FEF63
:0C5B3900B409DFD252C248C29C75995AD0
:015B4500223D
:105DDC00900402E07006C29C75995A22C29C759977
:025DEC00FF2294
:084A3A009006ABEEF0A3EFF0D3
:104A42007B017A047900900402E02403FD125C6287
:104A5200900402E02403F582E43404F583E06F70ED
:104A620045FF900402E0FEEFC39E502DE4F5B174C1
:104A7200032FF582E43404F583E0FE9006ABE0FCFC
:104A8200A3E0F5828C83EEF09006ACE004F07006B1
:104A92009006ABE004F00F80C9D25BE49002E0F034
:0B4AA200C29C75995A22C29C7599FFB6
:014AAD0022E6
:104BF100900402E0D3948C4002E4F0E4FD900402BE
:104C0100E0FCEDC39C501DE4F5B18F828E83E0FB87
:104C110074032DF582E43404F583EBF00FBF00013A
:104C21000E0D80D97B017A047900EC2403FD125C1E
:104C310062900402E02403F582E43404F583EFF08A
:104C4100C29C900496E02400F582E43404F583E0EC
:024C5100F599D3
:014C5300223E
:10567F007B017A047900900402E02403FD125C623E
:10568F00900402E02403F582E43404F583E0B507C7
:10569F001E900404E0FFB441089003CA7412F08016
:1056AF0006EFB40502D234C248C29C75995A22C281
:0556BF009C7599FF221B
:105980007B017A047900900402E02403FD125C623A
:10599000900402E02403F582E43404F583E0B507C3
:1059A00010900403E09002F0F0C248C29C75995A2E
:0759B00022C29C7599FF2241
:101D7300900401E024AB7003021F0A24B5606024C1
:101D83009FB418004003021F0E901D9A75F003A420
:101D9300C58325F0C58373021DE6021DF8021E0AE2
:101DA300021E1C021E2E021E40021E52021E64024E
:101DB3001E76021E88021E9A021EAA021EB2021E6E
:101DC300BA021EC2021EA2021ECA021ED2021EDADC
:101DD300021EE2021EEA021EF2021EFA021F021293
:101DE3005DDC22E51625E024F5F582E43402AF82BA
:101DF300FE124BF122E51625E024F7F582E43402C6
:101E0300AF82FE124BF122E51625E024F9F582E4B8
:101E13003402AF82FE124BF122E51625E024FBF5D6
:101E230082E43402AF82FE124BF122E51625E02450
:101E3300FDF582E43402AF82FE124BF122E5162552
:101E4300E024FFF582E43402AF82FE124BF122E577
:101E53001625E02401F582E43403AF82FE124BF130
:101E630022E51625E02403F582E43403AF82FE1253
:101E73004BF122E51625E02405F582E43403AF8215
:101E8300FE124BF122E51625E02407F582E4340324
:101E9300AF82FE124BF1227E037F1D124BF1227E95
:101EA300037F1F124BF1227E037F23124BF1227E0D
:101EB300037F25124BF1227E037F27124BF1227EF3
:101EC300037F29124BF1227E037F2B124BF1227EDB
:101ED300037F2F124BF1227E037F33124BF1227EBD
:101EE300037F35124BF1227E027FF1124BF1227EEA
:101EF300027FF3124BF1227E037F37124BF1227ED6
:101F0300037F39124BF122125B1922900402E0C3C2
:101F130094804005D23ED24A22900401E0B4780C6A
:101F23009002F0E0B40C05D23ED23622900401E0D8
:101F3300B478229002F0E025E02495F582E4345051
:101F4300F583E493FE740193FF9006ADEEF0A3EFE7
:101F5300F0124BF122900401E0B479219002F0E0F9
:101F630025E024B9F582E43450F583E493FE74014B
:0D1F730093FF9006ADEEF0A3EFF0124BF1DE
:011F8000223E
:105484007B017A047900900402E02403FD125C623B
:10549400900402E02403F582E43404F583E06F70A1
:1054A40022D254900403E0FEA3E0FDEEEDFF90034E
:1054B400EDEEF0A3EFF09003C5E04401F0C29C755B
:0954C400995A22C29C7599FF223D
:103F06007B017A047900900402E02403FD125C62CE
:103F1600900402E02403F582E43404F583E06F6044
:103F260003023FAED254900404E0FFE4FCFDFE78A9
:103F360010120B9EC004C005C006C007900403E023
:103F4600FFE4FCFDFE7818120B9ED003D002D001D0
:103F5600D000EF4BFFEE4AFEED49FDEC48FCC004F5
:103F6600C005C006C007900405E0FFE4FCFDFE782E
:103F760008120B9ED003D002D001D000EF4BFBEE0F
:103F86004AFAED49F9EC48F8A3E0FFE4EB4FFFEA03
:103F9600FEE9FDE8FC900399120BB19003C5E044DD
:0E3FA60010F0C29C75995A22C29C7599FF2298
:1059EE007B017A047900900402E02403FD125C62CC
:1059FE00900402E02403F582E43404F583E0B50755
:105A0E000FD2549003C5E04420F0C29C75995A22DF
:065A1E00C29C7599FF22F5
:1054CD007B017A047900900402E02403FD125C62F2
:1054DD00900402E02403F582E43404F583E06F7058
:1054ED0022D254900403E0FEA3E0FDEEEDFF900305
:1054FD00C8EEF0A3EFF09003C5E04404F0C29C7534
:09550D00995A22C29C7599FF22F3
:105516007B017A047900900402E02403FD125C62A8
:10552600900402E02403F582E43404F583E06F700E
:1055360022D254900403E0FEA3E0FDEEEDFF9003BB
:10554600CBEEF0A3EFF09003C5E04408F0C29C75E3
:09555600995A22C29C7599FF22AA
:10555F007B017A047900900402E02403FD125C625F
:10556F00900402E02403F582E43404F583E06F70C5
:10557F0027FDD25474032DF582E43404F583E0FE45
:10558F0074F02DF582E43403F583EEF09003C5E05B
:08559F004480F00DEDB406DAC2
:0155A70022E1
:103FB400900401E0120BEE3FE0183FE477400078F4
:103FC4004022793FECA03FF4A13FF8A23FE8A33F91
:103FD400F0A43FFCAF4044B00000405A12567F2288
:103FE40012598022123F0622125484221259EE22C0
:103FF4001254CD221255162212555F229002F0E07F
:1040040025E02495F582E43450F583E493FE7401AD
:1040140093FF9006AFEEF0A3EFF0124A3A2290021B
:10402400F0E025E024B9F582E43450F583E493FE0E
:10403400740193FF9006AFEEF0A3EFF0124A3A2218
:10404400900403E0B4550AD23ED23AC29C75995A00
:0640540022C29C7599FFD9
:01405A002243
:03002300024C5438
:104C5400C0E0C083C082C0D075D000C005C007309A
:104C64009844900496E02400F582E43404F583E546
:104C740099F0900496E004F0E0C394504002E4F00C
:104C8400900496E0FDB4040A900403E02406900620
:104C940099F0900699E0FFEDC39F4006E4F090047C
:104CA40096F0C298C248D007D005D0D0D082D08325
:034CB400D0E0321B
:104F3F009002C0EBF0A3EAF0A3E9F0A3ECF0A3ED2D
:014F4F00F071
:104F50007FFF7DFF9002C374FFF5F01209AA45F0B0
:104F6000602F9002C0E0FBA3E475F0011209AAA92A
:104F7000F0FA1208DE6FFE2499F582E43404F5831A
:104F8000E06DFF74992EF582E43405F583E0FD8031
:054F9000C3EFFEEDFF80
:014F950022F9
:0501FE005AA502F40007
:0300000002464273
:0646420075819F02468312
:10238400B5E7D0BEC2FAB3E4C8DDC1BFB8FCD0C261
:1023940062564451203D20257800B7C5B5E7B4CE38
:1023A400CA206D41682049756C4473674379636C36
:1023B40065436F756E743D20256C642C696E666F81
:1023C4002E756C5243203D20256C640A00CAA3D3A9
:1023D400E0B5E7C1BF20496E666F2E756C52433D70
:1023E40020256C640A00496E666F2E756952534F3E
:1023F40043203D2025640A00624644202D2D2D2DC6
:102404002D2D2D2D0A0062564451202D2D2D2D2DBC
:102414002D2D2D0A00B9B7C5D6AEBAF3B8FCD0C27B
:10242400C8DDC1BFD6B520496E666F2E756C4643B4
:1024340043203D20256C64A3AC4532756C46434370
:10244400203D20256C640A00624643202D2D2D2D4D
:102454002D2D2D2D0A00625556202D2D2D2D2D2D7F
:102464002D2D0A00624856202D2D2D2D2D2D2D2D7C
:102474000A00CAA3D3E0B5E7C1BF20496E666F2E38
:10248400756C52433D20256C642CB5E7C1BFB0D9AF
:10249400B7D6B1C8496E666F2E756952534F432043
:1024A4003D20256420A3AC496E666F2E756C4643AF
:1024B40043203D20256C64A3AC4532756C464343F0
:1024C400203D20256C64202C756C464343436F7576
:1024D4006E74203D20256C640A000A20693D256243
:1024E400642020CAA3D3E0B5E7C1C1B0D9B7D6B13F
:1024F400C8496E666F2E756952534F43203D20259F
:10250400642C496E666F2E756C566F6C74616765CA
:10251400203D25642C45327569564F435B25626422
:102524005D203D202564202C45327569564F435B60
:102534002562645D3D2564200A000A204532756CDD
:10254400464343203D256C6420CAA3D3E0B5E7C1CC
:10255400BF496E666F2E756C5243203D20256C6416
:03256400200A004A
:10020300A215722A721A721B721C5004C222805DDC
:1002130020225A900026E0FEA3E0FFFBAA06E4900A
:10022300032BE0FCA3E0FDA3E0FEA3E0C39BFFEEF2
:100233009AFEED9400FDEC9400FCA3E0F8A3E0F932
:10024300A3E0FAA3E0FBD3120B664021900024E065
:10025300FEA3E0FFD39002E6E09F9002E5E09E401C
:100263000CD222900394120BBD000000007BFF7A96
:10027300237984E52454041313543FFF900208E4C4
:10028300F0A3EFF01210AF202A0302032F90039084
:10029300E0A3E0A3E0FEA3E0FF9003A0E02FF09033
:1002A300039FE03EF0C39003A0E0941090039FE00F
:1002B300940E50030204CAA3E024F0F090039FE0DD
:1002C30034F1F090032BE0FCA3E0FDA3E0FEA3E0F8
:1002D300FFA3E0F8A3E0F9A3E0FAA3E0FBC3120B4A
:1002E30066502753A8EF90032FE0FCA3E0FDA3E0A3
:1002F300FEA3E02401FFE43EFEE43DFDE43CFC906C
:10030300032F120BB143A810809B53A8EF90032B2C
:10031300E0FCA3E0FDA3E0FEA3E0FFA3120BB143C7
:10032300A810E490039FF0A3F00202A8202B03027D
:1003330004CA900390E0FCA3E0FDA3E0FEA3E0FF6A
:10034300120B429002EBE02FF09002EAE03EF0C382
:10035300A3E094109002EAE0940E50030204CAC38F
:100363009002EBE094109002EAE0940E5003020432
:1003730039A3E024F0F09002EAE034F1F09002E1D6
:10038300E0FCA3E0FDA3E0FEA3E02401FFE43EFEC6
:10039300E43DFDE43CFC9002E1120BB17BFF7A23C8
:1003A300799E9002E1E0FCA3E0FDA3E0FEA3E0FF61
:1003B300900208120BB190032FE0FCA3E0FDA3E031
:1003C300FEA3E0FF90020C120BB11210AFE4FFFE8C
:1003D300FDFC90032FE0F8A3E0F9A3E0FAA3E0FB10
:1003E300D3120B66402853A8EF90032FE0FCA3E041
:1003F300FDA3E0FEA3E024FFFFEE34FFFEED34FF98
:10040300FDEC34FFFC90032F120BB143A810202204
:1004130003020362900394E0FCA3E0FDA3E0FEA3C8
:10042300E02401FFE43EFEE43DFDE43CFC90039444
:10043300120BB10203627BFF7A2379D190032FE081
:10044300FCA3E0FDA3E0FEA3E0FF900208120BB1C2
:100453001210AF90001EE0FCA3E0FDA3E0FEA3E0BA
:10046300FF9002E1E0F8A3E0F9A3E0FAA3E0FBC305
:10047300120B6640529002E1E0FCA3E0FDA3E0FE14
:10048300A3E0FF90001EE0F8A3E0F9A3E0FAA3E0E5
:10049300FBEF9BFFEE9AFEED99FDEC98FC9002E1D9
:1004A300120BB1900023E004F07006900022E004E8
:1004B300F0900022E0FFA3E0900335CFF0A3EFF02C
:1004C300D25BE49002E0F090032BE0FCA3E0FDA3F9
:1004D300E0FEA3E0FFA3E0F8A3E0F9A3E0FAA3E0C2
:1004E300FBC3120B66503853A8EFE47F64FEFDFC98
:1004F30090032FE0F8A3E0F9A3E0FAA3E0FB120ACC
:100503002590032BE0F8A3E0F9A3E0FAA3E0FB12A4
:100513000AB0900333EEF0A3EFF043A810800F531B
:10052300A8EF900333E4F0A37464F043A8107BFFB7
:100533007A2379EA900333E0FFA3E0900208CFF037
:10054300A3EFF01210AF2021030207067BFF7A23EB
:1005530079FC1210AF2022030206BE7BFF7A2479B6
:100563000A1210AFE47B0AFAF9F890032BE0FCA31C
:10057300E0FDA3E0FEA3E0FF120AB0E47B03FAF977
:10058300F8120A25900200EEF0A3EFF0E4FCFD90D0
:10059300032BE0F8A3E0F9A3E0FAA3E02FFFEA3E80
:1005A300FEED39FDEC38FC900394E0F8A3E0F9A3E9
:1005B300E0FAA3E0FBD3120B66402B900200E0FEAF
:1005C300A3E0FFE4FCFD90032BE0F8A3E0F9A3E034
:1005D300FAA3E02FFFEA3EFEED39FDEC38FC900371
:1005E30094120BB18063900200E0FEA3E0FFE4FCF1
:1005F300FD900394E0F8A3E0F9A3E0FAA3E02FFF52
:10060300EA3EFEED39FDEC38FC90032BE0F8A3E065
:10061300F9A3E0FAA3E0FBD3120B66402C9002008F
:10062300E0FEA3E0FFFBAA06E490032BE0FCA3E0BB
:10063300FDA3E0FEA3E09BFFEE9AFEED9400FDEC2C
:100643009400FC900394120BB153A8EF900394E031
:10065300FCA3E0FDA3E0FEA3E0FF90032B120BB18C
:1006630043A810900394E0FCA3E0FDA3E0FEA3E005
:10067300FF90001A120BB17BFF7A24791990032B98
:10068300E0FCA3E0FDA3E0FEA3E0FF900208120B51
:10069300B190001AE0FCA3E0FDA3E0FEA3E0FF900D
:1006A300020C120BB11210AFC222D25BE49002E033
:1006B300F09002ED7455F0781A763253A8EFD39088
:1006C3000334E0940A900333E094004006E4F0A37B
:1006D300740AF0900333E0FEA3E0FFE4FCFD900313
:1006E3002BE0F8A3E0F9A3E0FAA3E0FB120A25E468
:1006F3007B64FAF9F8120AB090032F120BB143A8E6
:1007030010802D30202A7BFF7A24794C1210AF53AE
:10071300A8EF90032BE0FCA3E0FDA3E0FEA3E0FF22
:10072300A3120BB1900333E4F0A37464F043A81055
:1007330053A8EF30191C7BFF7A24795A1210AF901B
:10074300032F120BBD00000000E4900333F0A3F06D
:1007530080273018247BFF7A2479681210AF900326
:100763002BE0FCA3E0FDA3E0FEA3E0FFA3120BB18B
:10077300900333E4F0A37464F043A8107BFF7A245E
:10078300797690032FE0FCA3E0FDA3E0FEA3E0FF56
:10079300900208120BB1900333E0FFA3E090020C28
:1007A300CFF0A3EFF090032BE0FCA3E0FDA3E0FE6A
:1007B300A3E0FF90020E120BB190001AE0FCA3E03D
:1007C300FDA3E0FEA3E0FF900212120BB19003948D
:1007D300E0FCA3E0FDA3E0FEA3E0FF900216120BF2
:0407E300B11210AF90
:0107E70022EF
:101B3C00900333E4F0A37464F0E4900200F090029C
:101B4C0000E0FFC3940A4003021D16EF25E02402B7
:101B5C00F582E43400F583E0FCA3E0FDAF0E7E00DB
:101B6C001208F790031DE0FAA3E0FBC39FEA9E4026
:101B7C0003021D0D900200E06003021C0CAF0EFE70
:101B8C0090007AE0FCA3E0FD1208F7C3EB9FEA9EFD
:101B9C00500AE4900333F0A3F0021D16AF0E7E0042
:101BAC0090007AE0FCA3E0FD1208F7C390031EE05E
:101BBC009FFF90031DE09EFE7C007D0A120C41C02D
:101BCC0004C005C006C00790007AE0FEA3E0FFC386
:101BDC00900003E09FFF900002E09EFEAD0E7C00A3
:101BEC001208F7AB07AA06E4F9F8D007D006D0051F
:101BFC00D004120AB0900333EEF0A3EFF0021D16DE
:101C0C00900200E025E02400F582E43400F583E046
:101C1C00FCA3E0FDAF0E7E001208F7C390031EE09C
:101C2C009FFF90031DE09EFE7C007D0A120C41C0BC
:101C3C0004C005C006C007900200E0FF25E02400A8
:101C4C00F582E43400F583E0FCA3E0FDEF25E0240D
:101C5C0002F582E43400F583E0FEA3E0C39DFFEEC1
:101C6C009CFEAD0E7C001208F7AB07AA06E4F9F84F
:101C7C00D007D006D005D004120AB0AD07AC069040
:101C8C000200E075F00AA42DFEE5F03C900333F061
:101C9C00A3CEF07BFF7A2479DE900200E0FF900265
:101CAC0008F0900333E0FDA3E0900209CDF0A3ED22
:101CBC00F090031DE0FDA3E090020BCDF0A3EDF03E
:101CCC00A3EFF090020025E02402F582E43400F545
:101CDC0083E0FDA3E090020ECDF0A3EDF0EF14A392
:101CEC00F0900200E025E02400F582E43400F58356
:101CFC00E0FFA3E0900211CFF0A3EFF01210AF8041
:101D0C0009900200E004F0021B4A900333E0FEA3AA
:101D1C00E0FFE4FCFD90001AE0F8A3E0F9A3E0FA80
:101D2C00A3E0FB120A25E47B64FAF9F8120AB090DE
:101D3C00032F120BB17BFF7A25793E90001AE0FC41
:101D4C00A3E0FDA3E0FEA3E0FF900208120BB1900C
:101D5C00032FE0FCA3E0FDA3E0FEA3E0FF90020C48
:061D6C00120BB11210AFD2
:011D7200224E
:105224009003FEEAF0A3EBF09003FCEFF0A3EDF0A3
:01523400F980
:10523500D26FEFFD7C00AB01A3E0FFA3E090020D70
:10524500CFF0A3EFF07FDE1231A2401E9003FCE009
:10525500FD7C00A3E0FBA3E0FFA3E090020DCFF0EF
:0C526500A3EFF07FDE1231A2926FA26F67
:01527100221A
:1052720090069DEAF0A3EBF090069BEFF0A3EDF011
:01528200F932
:10528300D270EFFD7C00AB01A3E0FFA3E090020D21
:10529300CFF0A3EFF07FDE122567401E90069BE060
:1052A300FD7C00A3E0FBA3E0FFA3E090020DCFF0A1
:0C52B300A3EFF07FDE1225679270A2705E
:0152BF0022CC
:10410100C2717A027B937D09E4FF1252724003026D
:1041110041A390029AE020E03E900293E09003E4F4
:10412100F0900294E09003E5F0900295E0541F9026
:1041310003E6F0900296E09003E8F0900297E09099
:1041410003E9F0900298E09003EAF0900299E09080
:1041510003E7F0D271804B9003E4E0900293F0907A
:1041610003E5E0900294F09003E6E044809002952C
:10417100F09003E8E0900296F09003E9E090029756
:10418100F09003EAE0900298F09003E7E090029942
:10419100F0A37490F0E4A3F07A027B937D09FF12FF
:0441A1005224A27191
:0141A50022F7
:104D7900C27290029C7490F07A027B9C7D017F073D
:104D890012522492729003E4E090029DF09003E5A0
:104D9900E090029EF09003E6E0448090029FF0903C
:104DA90003E8E09002A0F09003E9E09002A1F090FE
:104DB90003EAE09002A2F09003E7E09002A3F07A00
:0E4DC900027B9D7D07E4FF1252249272A272BB
:014DD70022B9
:102E3100E4900269F0200703C24D22304D03022FB6
:102E41005BD24D7E027F627B07E4FD125AEB7E026C
:102E51007F6B7B08E4FD125AEB7A027B6B7D087F66
:102E6100F07EFF125138E4FF746B2FF582E43402D7
:102E7100F583E0FE900269E02EF00FEFB406E990D1
:102E81000269E0FF900271E0B50706A3E0645A60B1
:102E91001DE4900262F0A3F0A37412F0A37405F094
:102EA100A37415F0A37403F0A37419F08034900295
:102EB1006BE0900262F090026CE0900263F090028D
:102EC1006DE0900264F0A37405F090026EE0900250
:102ED10066F090026FE0900267F0900270E090025D
:102EE10068F07E027F627C037DE47B071259B79014
:102EF10003E4E0900262F09003E5E0900263F09059
:102F010003E6E04480900264F09003E8E0900265FB
:102F1100F09003E9E0900266F09003EAE090026726
:102F2100F09003E7E0900268F090026A7490F07A02
:102F3100027B6A7D017F0712522490026A7401F0BC
:102F41007A027B6AFD7F06125224124101500B7AEC
:0A2F5100027B627D07E4FF125224A8
:012F5B002253
:1055F1009002B4EEF0A3EFF0A3EDF0A3EAF0A3EB79
:01560100F0B8
:10560200A37405F09002B4E0FCA3E0FDA3E0FBA3C9
:10561200E0FFA3E090020DCFF0A3EFF07FA01231E4
:10562200A240139002B9E0600D7F01125D6090020A
:06563200B9E014F080CE87
:01563800224F
:105138009002BAEEF0A3EFF0A3EDF0A3EAF0A3EB30
:01514800F076
:10514900C273A37405F02073329002BFE0602C9003
:1051590002BAE0FCA3E0FDA3E0FBA3E0FFA3E0901B
:10516900020DCFF0A3EFF07FA012256792737F01A4
:0D517900125D609002BFE014F080CBA273C5
:015186002206
:104AAE007E027F817B08E4FD125AEBE490027FF0D8
:104ABE00A3F090027FE0FEA3E0FFE4FCFD7BFF7A13
:104ACE0007F9F8D3120B504032E4F5B190027FE0B3
:104ADE00FEA3E07805C333CE33CED8F9241FFFE40E
:104AEE003EFE7A027B817D011255F1900280E00438
:104AFE00F0700690027FE004F080B77A027B817D31
:0F4B0E00087FE07EFF1255F1E4900380F0A3F0E2
:014B1D002275
:1047D000200703C24D22204D76D24D7A027BA47D64
:1047E000087FE07EFF1251389002A5E0FF9002A4FE
:1047F000E02F9002A6F09002A9E0FF9002A8E02F1F
:104800009002AAF09002A7E0FF9002A6E0B507167A
:104810009002A4E0FEA3E07C002400FFEC3E9003A5
:1048200080F0A3EFF0229002ABE0FF9002AAE0B587
:1048300007169002A8E0FEA3E07C002400FFEC3EF7
:0F484000900380F0A3EFF022E4900380F0A3F048
:01484F002246
:104FEC00E4900292F01241017E037FE47C027D8901
:104FFC007B031259B77E037FE87C027D8C7B031206
:10500C0059B7E4FF74892FF582E43402F583E0FE8E
:10501C00900292E02EF00FEFB406E9900292E0902D
:10502C00028FF0A3745AF07A027B897D087FF07EA0
:04503C00FF1255F119
:01504000224D
:1057D100900380E0FCA3E0FDEC9002ACF0AF05A3E8
:1057E100EFF09002ACE02F9002AFF09002ACE090AD
:1057F10002B0F09002ADE09002B1F09002AFE09003
:1058010002B3F07A027BAC7D087FE07EFF1255F196
:015811002274
:051F8100900241EFF0A9
:101F86006410701C7E037FDB7C027D427B0312594A
:101F9600B77E037FDF7C027D457B031259B7801D28
:101FA6001241017E037FE47C027D427B031259B716
:101FB6007E037FE87C027D457B031259B79002F1D0
:101FC600E0FCA3E0FDEC900248F0A3EDF09002F3F4
:101FD600E0FCA3E0FDEC90024AF0A3EDF090032BA9
:101FE600E0FCA3E0FDA3E0FEA3E0FF7818120B7768
:101FF60090024CEFF090032BE0FCA3E0FDA3E0FE83
:10200600A3E0FF7810120B7790024DEFF090032BB0
:10201600E0FCA3E0FDA3E0FEA3E0FF7808120B7747
:1020260090024EEFF090032BE0A3E0A3E0A3E09034
:10203600024FF090032FE0FCA3E0FDA3E0FEA3E037
:10204600FF7818120B77900250EFF090032FE0FC08
:10205600A3E0FDA3E0FEA3E0FF7810120B77900249
:1020660051EFF090032FE0FCA3E0FDA3E0FEA3E018
:10207600FF7808120B77900252EFF090032FE0A33F
:10208600E0A3E0A3E0900253F090031DE0FCA3E080
:10209600FDAE047818CEC313CE13D8F9900254F0CF
:1020A600EDAE047810CEC313CE13D8F9900255F0D6
:1020B60090031DE0FCA3E0FDEC900256F0A3EDF0CA
:1020C60090031FE0FCA3E0FDA3E0FEA3E0FF781869
:1020D600120B8A900258EFF090031FE0FCA3E0FD7C
:1020E600A3E0FEA3E0FF7810120B8A900259EFF0EE
:1020F60090031FE0FCA3E0FDA3E0FEA3E0FF780849
:10210600120B8A90025AEFF090031FE0A3E0A3E0BF
:10211600A3E090025BF0900323E0FCA3E0FDEC90CB
:10212600025CF0A3EDF0900335E0FCA3E0FDEC903B
:10213600025EF0A3EDF0900241E0900260F0A3741D
:102146005AF0900380E0FEA3E0FF7A027B427D20F6
:102156001255F1900381E02420F0900380E03400D2
:10216600F0E0FEA3E0FFE4FCFD7BE07AFFF9F8D3A4
:0F217600120B505007E4900380F0A3F01257D1E2
:012185002237
:104B88009002F0E02480FFE434FFEF7D00C454F08D
:104B9800FC900401E02488FFE434FFFEEF7807C3AB
:104BA80033CE33CED8F92DFFEE3CFE900402E0FD63
:104BB8007A047B031251387B017A0479009004024D
:104BC800E02403FD125C62900402E02403F582E411
:104BD8003404F583EFF0C29C900496E02400F5823B
:084BE800E43404F583E0F599C3
:014BF00022A2
:105187001241017E037FE47C047D037B031259B740
:105197007E037FE87C047D067B031259B77B017A87
:1051A700047900900402E02403FD125C629004027B
:1051B700E02403F582E43404F583EFF0C29C900405
:0F51C70096E02400F582E43404F583E0F59922A4
:105041001247D0122E31303A05C23A124AAE304AD6
:1050510005C24A124B88303605C236125187304E8E
:1050610005C24E124FEC304B0CC24B9006B474107B
:10507100F0FF121F8130570CC2579006B47401F033
:10508100FF121F8130560CC2569006B47402F0FF15
:03509100121F816A
:0150940022F9
:1039A6001247D0122E3190002EE0FF90033BE00428
:1039B600F0C39F4005E4F012410190037EE475F0E8
:1039C60001120994FEC3E5F09410EE940E400BE448
:1039D60090037EF0A3F0D23ED24E202A1ED259305A
:1039E6005806C258D23ED25730210B304F08C24F2C
:1039F600D23ED2568005202102D24F30596D90001A
:103A06002CE0FEA3E0FFEE3395E0FDFC90031FE003
:103A1600F8A3E0F9A3E0FAA3E0FBC3120B50404B76
:103A260090038EE07002A3E070101241017E037FC6
:103A3600E47C037DDB7B071259B790002BE0FF7E09
:103A4600007C007D3C1208F790038EE475F00112AD
:103A56000994FCD3E5F09FEC9E4017E490038EF0AA
:103A6600A3F0D258C259D23ED24B22E490038EF034
:033A7600A3F02298
:10474E000A202D2D2D2D2D7569566F6C74616765A0
:10475E004D696E203D202564202D2D2D2D0A000A39
:10476E00202D2D2D2D2DC2FAD7E3CCF5BCFE202DFC
:10477E002D2D2D0A000A202D2D2D2D2DD0B4C8EB58
:10478E00B2BBB3C9B9A644415441464C4153485FEC
:10479E0041444452202D2D2D2D0A000A202D2D2D61
:1047AE002D2DD0B4C8EBB2BBB3C9B9A64441544108
:1047BE00464C4153485F4144445232202D2D2D2DFD
:0247CE000A00DF
:105ABD00AB07AA06C2AF75A701EAF5F7AF038FFBD7
:105ACD00AF058FFC75F26E75F30575F40A75F50962
:0E5ADD0075F6060000000000E4F5A7D2AF2227
:105B460075A701E4F5B1FDFCE4F5B1EF2DFBEE3CE4
:105B56008B82F583E4936002C3220DBD00010CE441
:085B6600B505E5ECB402E1D342
:015B6E002214
:0848D000900206EEF0A3EFF0E8
:1048D800E4F52FF530C25FF5B1FDFCE4F5B19002C7
:1048E80006E0FAA3E0FB2DF5FBEB2DEA3CF5F7E536
:1048F800302DF582E52F3CF583E0F5FC781AE6705B
:104908004275F26E20AF3C75F305E5A7603575F486
:104918000A9002EDE06455702A75F509900207E0E7
:104928002D900206E03CABF7B50318E475F60600D7
:1049380000000000D25F0DBD00010CE4B5059CEC41
:05494800B40298A25F1B
:01494D002247
:08441200900204EEF0A3EFF0AC
:10441A00C25EE4F5B1C2AF75A701900204E0FF7E67
:10442A0000F5F7781AE6705F75F2E620AF5975F372
:10443A0005E5A7605275F40A9002EDE064557047ED
:10444A0075F509ADF7EF6D7001EE703B75F6060074
:10445A0000000000900204E0FEA3E0FF125B465059
:10446A00269001FE745AF0A374A5F0900204E0FEAF
:10447A00A3E0FF1248D0500F900204E0FEA3E0FF31
:10448A00124CB75002D25EE4F5F2F5F3F5F4F5F505
:0A449A00F5F6F5A7F5F7D2AFA25E24
:0144A40022F5
:084CB700900206EEF0A3EFF0FD
:104CBF00E4F52FF53075A701F5B1A3F0A3F090023D
:104CCF0008E0FEA3E0FFC3EE9402503DE4F5B1907F
:104CDF000207E02FFF900206E03E8F82F583E493F8
:104CEF00FF900208E0FCA3E02530F582E52F3CF5AC
:104CFF0083E0FEEF6E6002C322900209E004F070C1
:0A4D0F0006900208E004F080B5D31E
:014D19002277
:1032C400C25CC25D9002ED7455F0E50ED3940540E6
:1032D4000875132775141080067513137514887BED
:1032E400FF7A47794E900208E513F0A3E514F01233
:1032F40010AFC390031EE0951490031DE095135086
:10330400030233B39001FEE0645A7004A3E064A5A1
:1033140060030233B37BFF7A47796D1210AFE4FF89
:10332400FE12441240557BFF7A4779831210AFE4B2
:10333400FFFE1244124019D25C74FF9001FEF0A308
:10334400F0FD7FFE7E01125ABD7FFF125ABD8063DD
:103354007F007E02124412405A7F007E0212441201
:103364004051D25D74FF9001FEF0A3F0FD7FFE7E1C
:1033740003125ABD7FFF125ABD80387F007E0212AD
:103384004412402F7BFF7A4779A91210AF7F007E49
:1033940002124412401DD25D74FF9001FEF0A3F0AE
:1033A400FD7FFE7E03125ABD7FFF125ABD8004D2F8
:1033B4005CD25DE49002EDF0304013C240A25D8225
:0E33C4005C5006C29C7599FF22C29C75995AF6
:0133D20022D8
:0E46C800900204EEF0A3EFF0A3EAF0A3EBF0F3
:1046D600C25CAE04AF058E2F8F30C2AF75A70190B6
:1046E6000205E024FEFF900204E03401C313FEEF4E
:1046F6001325E0FFEE338F82F58374019364A57072
:1047060004E493645A703BFFFEC3900207E09F9057
:104716000206E09E402AE4F5B1900205E02FFD90E6
:104726000204E03E8D82F583E493853082852F83F3
:10473600F00530E5307002052F0FBF00010E80C96D
:07474600D25CE4F5A7A25CC0
:01474D002249
:105D8F00305B119002E0E004F0C394024006E4F0AF
:055D9F00C25BD24622A8
:0B53A400900205EFF0A3ECF0A3EDF089
:1053AF00C25DE4A3F0900208E0FF04F0EFC39405A0
:1053BF00502B900205E0FD7C00A3E0FFA3E09002DC
:1053CF000DCFF0A3EFF07B017F361231A2925D304B
:0F53DF005D04800980CF7F01125D6080C8A25DF0
:0153EE00229C
:0B53EF00900205EFF0A3ECF0A3EDF03E
:1053FA00C25DE4A3F0900208E0FF04F0EFC3940555
:10540A00502B900205E0FD7C00A3E0FFA3E0900290
:10541A000DCFF0A3EFF07B027F36122567925D3045
:0F542A005D04800980CF7F01125D6080C8A25DA4
:015439002250
:105A58007C037DCDE4FF1253EF9003CDE07004A3E7
:105A6800E060209003D1E04480F07C037DD17F0486
:105A78001253A49003D1E0547FF07C037DD17F04BE
:045A88001253A422EF
:105A8C00D25CE4900203F0900203E0FE2403FFEEEC
:105A9C007C0024D0F9EC3403FCAD011253A4400279
:105AAC00C25C900203E004F0E0C3940B40D9A25C0A
:015ABC0022C7
:1035E50000070E091C1B1215383F363124232A2DDE
:1035F50070777E796C6B6265484F464154535A5DCE
:10360500E0E7EEE9FCFBF2F5D8DFD6D1C4C3CACDBD
:1036150090979E998C8B8285A8AFA6A1B4B3BABDAD
:10362500C7C0C9CEDBDCD5D2FFF8F1F6E3E4EDEA9D
:10363500B7B0B9BEABACA5A28F88818693949D9A8D
:103645002720292E3B3C35321F18111603040D0A7D
:103655005750595E4B4C45426F68616673747D7A6D
:10366500898E878095929B9CB1B6BFB8ADAAA3A45D
:10367500F9FEF7F0E5E2EBECC1C6CFC8DDDAD3D44D
:10368500696E676075727B7C51565F584D4A43443D
:10369500191E171005020B0C21262F283D3A33342D
:1036A5004E49404752555C5B7671787F6A6D64631D
:1036B5003E39303722252C2B0601080F1A1D14130D
:1036C500AEA9A0A7B2B5BCBB9691989F8A8D8483FD
:1036D500DED9D0D7C2C5CCCBE6E1E8EFFAFDF4F3ED
:105B6F00D25F7D807CBBE5C820E310E4F5B1ED4C3E
:105B7F006009ED1D70011C80ED80EBE5D154F86FCD
:065B8F006002C25FA25F8C
:015B950022ED
:105C6200E4FFEDD394004016E4F5B11208DE6F9024
:0E5C720035E593FF740129F9E43AFA1D80E448
:015C80002201
:1031A20090020CEBF0900209EFF0A3ECF0A3EDF02B
:1031B200D25E90020FEFF0A3EDF090020DE0FEA3BD
:1031C200E0F5828E83E0900211F07B017A02790FA2
:1031D2007D03125C62900212EFF090020CE0D39435
:1031E2000050030232C143E6C043D10143C8017516
:1031F200C8607F08125B6F400C7F10125B6F400546
:10320200C25E0232BE900209E0F58D75C8407F1899
:10321200125B6F4005C25E0232BE900209E0B4A0AA
:1032220013A3E0F58D75C8407F28125B6F4005C27D
:103232005E0232BE90020AE0A3E0F58D75C8407FBF
:1032420028125B6F4004C25E8072900209E064360D
:10325200703090020DE0FEA3E0F5828E83E0F58DE2
:1032620075C8407F28125B6F4004C25E804E900298
:1032720012E0F58D75C8407F28125B6F403EC25E3A
:10328200803AE4FE90020CE0FFEEC39F502EE4F57C
:10329200B1A3E0FCA3E0F5828C83E0F58D75C84014
:1032A2007F28125B6F4004C25E801190020EE00420
:1032B200F0700690020DE004F00E80C875C850A2AE
:0132C2005EAD
:0132C30022E8
:0D256700AA0790020AECF0A3EDF0A3EBF040
:10257400D25EE490023EF0A374BBF0A37480F090AA
:102584000210EAF0A3EDF0EA4401A3F0EBD39400C7
:10259400500302272843E6C043D10143C80175C84C
:1025A400607F08125B6F400C7F10125B6F4005C2A6
:1025B4005E0227018A8D75C8407F18125B6F400543
:1025C400C25E022701EAB4A01590020AE0F58D75F7
:1025D400C8407F28125B6F4005C25E02270190024B
:1025E4000AE0A3E0F58D75C8407F28125B6F4005B3
:1025F400C25E02270175C8607F08125B6F400C7FC2
:1026040010125B6F4005C25E022701EA4401F58D9A
:1026140075C8407F40125B6F4005C25E022701E42B
:1026240090020FF090020CE0FF90020FE0FEC39FB7
:10263400505DE4F5B1EA64366035EF14B5060A7509
:10264400C8407F58125B6F800875C8447F50125B86
:102654006F90020DE0FEA3E0F5828E83E58DF0908D
:10266400020EE004F0700690020DE004F08018758C
:10267400C8447F50125B6F90020FE02413F582E48C
:102684003402F583E58DF090020FE004F08095EAC2
:102694006436706975C8407F58125B6F90023EE5DE
:1026A4008DF07B017A02791090020CE02403FD1274
:1026B4005C6290023EE0B50742E490020FF09002A3
:1026C4000CE0FF90020FE0FEC39F503174132EF50F
:1026D40082E43402F583E0FF90020DE0FCA3E0F510
:1026E400828C83EFF090020EE004F0700690020DED
:1026F400E004F090020FE004F080C3C25E75C8509D
:10270400E5C830E41FE4F5B190023FE07002A3E0B5
:102714006012900240E024FFF090023FE034FFF0AA
:0627240080DE80DCA25EF5
:01272A00228C
:105DA40075C645E4F5E6758A02F5D1F5C87589FF2F
:035DB400F58D2248
:105D6000E4FEEEC39F5011E4FDFC0DBD00010CBC30
:085D700006F8BD86F50E80EA7D
:015D78002208
:1001CB007F08AE07A806E4F60FEFD3949F40F3E445
:1001DB00781BF608F6781BE6FE08E6FFD394FFEED5
:1001EB00940A500E8F828E83E4F006E61870010697
:0201FB0080E39F
:0101FD0022DF
:104DD80090002FE0645A7052900061E0645A704A63
:104DE800900073E0645A7042900088E0645A703A08
:104DF80090008DE0645A7032900098E0645A702AEE
:104E08009000A1E0B45A239000A9E0B45A1C900085
:104E1800ADE0B45A159000B9E0B45A0E9001FEE026
:0E4E2800645A7004A3E064A5600312272B22D5
:085AEB00900200EEF0A3EFF0C1
:105AF300E4FFEFC39B501E900200E0F8A3E0F582A1
:105B03008883EDF0900201E004F07006900200E05B
:055B130004F00F80DD2D
:015B1800226A
:0859B7009006B1EEF0A3EFF041
:1059BF00E4FFEFC39B50279006B1E0F8A3E0F58218
:1059CF008883E08D828C83F00DBD00010C9006B2B0
:0E59DF00E004F070069006B1E004F00F80D4F2
:0159ED002297
:0C5E4F00758E5543870100000000002202
:0C5E5B00758E55438702000000000022F5
:105DB700E4F5A8F5A9F588F5E8F59DF59CF59812A1
:035DC700000022B7
:10189D0041027C0041027D00410278004102790045
:1018AD00410274004102750041027E0041027A003E
:1018BD004102760041027B00410277004102730034
:1052C0009003D1E04401F07C037DD17F041253A40C
:1052D0007F64125D607C037DCF7F021253EF9003E9
:1052E000CFE0FF30E01230E0089002EF7401F08070
:1052F0000CE49002EFF08005E49002EFF09003D10F
:0E530000E054FEF07C037DD17F041253A42202
:104F96009003D1E04401F07C037DD17F041253A439
:104FA6009003EFE004F0C39402403AE4F07C037D02
:104FB600CF7F021253EF9003CFE0FF30E01230E0D4
:104FC600089002EF7401F0800CE49002EFF0800587
:104FD600E49002EFF09003D1E054FEF07C037DD123
:064FE6007F041253A42217
:10594800E4FFFE7F03124850D3EF940FEE94094012
:105958000A90027C7401F0E4A3F022C3EF94F9EEFC
:105968009408500C90027D7401F0E490027CF022BF
:07597800E490027CF0A3F0B3
:01597F002205
:1037D800E4FFFE7F0312485090027CE07036D3EF7E
:1037E800940FEE94094017900278E004F094024098
:1037F8005BE4F0900274F090027C04F0804EC3EF1A
:10380800940AEE94095045900278E09400403DE017
:1038180014F08038C3EF940AEE9409501A90027499
:10382800E004F0C394024024E4900278F09002741B
:10383800F090027CF08015D3EF940FEE9409400CC1
:10384800900274E0D394004003E014F090027DE00D
:103858007036C3EF94F9EE94085017900279E0049B
:10386800F0C394024057E4F0900275F090027D0492
:10387800F022D3EF94FDEE94084042900279E0D311
:1038880094004039E014F022D3EF94FDEE94084000
:1038980018900275E004F094024022E4900279F056
:1038A800900275F090027DF022C3EF94F9EE94082F
:0D38B800500B900275E094004003E014F006
:0138C50022E0
:10405B0090069F120BBD00000000D2837F0A125DF9
:10406B00607F08124850E4FCFD90069F120BB1E4F0
:10407B007FE47E0CFDFC90069FE0F8A3E0F9A3E043
:10408B00FAA3E0FB120A25E4FB7A10F9F8120AB046
:10409B00E47B0CFAF9F8120A2590069F120BB190EB
:1040AB00031EE02430FF90031DE034F8FEE4FCFD1A
:1040BB0090069FE0F8A3E0F9A3E0FAA3E0FBC3129C
:1040CB000B66402290031EE024D0FF90031DE034CA
:1040DB0007FEE4FCFD90069FE0F8A3E0A3E0A3E05D
:1040EB00D3120B66400890027E7401F08005E490B9
:0540FB00027EF0C2830B
:01410000229C
:103CD100900200120BBD00000000D2837F08124841
:103CE10050E4FCFD900200120BB1E47FE47E0CFD78
:103CF100FC900200E0F8A3E0F9A3E0FAA3E0FB12D4
:103D01000A25E4FB7A10F9F8120AB0E47B0CFAF9FF
:103D1100F8120A25900200120BB190031EE0243024
:103D2100FF90031DE034F8FEE4FCFD900200E0F892
:103D3100A3E0F9A3E0FAA3E0FBC3120B66402290D3
:103D4100031EE024D0FF90031DE03407FEE4FCFDD8
:103D5100900200E0F8A3E0A3E0A3E0D3120B6640D9
:103D61001A90027AE004F0D394024009E4F0C2838D
:103D710090027E04F0E4900276F022900276E00454
:103D8100F0D394024006E4F090027EF0E490027ACF
:013D9100F041
:013D9200220E
:105B9600E4FFFEC3E50C950AFFE50B9509FED3EF7E
:105BA600942CEE9401400790027B7401F022E4905D
:035BB600027BF07F
:015BB90022C9
:10563900E4FFFEC3E50C950AFFE50B9509FED3EFE0
:10564900942CEE94014018900277E004F0D3940270
:105659004007E4F090027B04F0E4900273F022909A
:105669000273E004F0D394024006E4F090027BF068
:05567900E4900277F04F
:01567E002209
:104B1E000A2053686F72745F666C61673D20256270
:104B2E00642C464F50454E203D202562642C4F6428
:104B3E00696666203D2562642C554956203D2562E6
:104B4E0064202C4F49563D20256264200A000A201D
:104B5E00414C4C4F575F4348475F464C41473D20C1
:104B6E0025626420414C4C4F575F4453475F464C7F
:0A4B7E004147203D202562640A0033
:0418CD004106B5001B
:03002600D2B22231
:085E7000D280E49006B5F02297
:1042E000E4900200F0A3F090027CE0FF70189002CE
:1042F0007DE0701290027EE0700C90027BE0700610
:104300009002EFE07009D286E4900200F08008C2CB
:10431000869002007401F090027EE0FE700C900224
:104320007BE070069006B5E06009D284E49002015B
:10433000F08008C2849002017401F07BFF7A4B790F
:104340001E9006B5E0900208F0A3EEF090027BE02C
:1043500090020AF090027DE090020BF0A3EFF012C1
:1043600010AF7BFF7A4B795C900200E0900208F07E
:0B437000900201E0900209F01210AF73
:01437B00221F
:100CCD00A219E4335401FF9002CEE0FCA3E054FEE0
:100CDD00FDECFEED4FFF9002CEEEF0A3EFF0A2146F
:100CED00E433540125E0FFE433FE9002CEE0FCA393
:100CFD00E054FDFDEC4EFEED4FFF9002CEEEF0A365
:100D0D00EFF0A215E4FE3354017802C333CE33CE97
:100D1D00D8F9FF9002CEE0FCA3E054FBFDEC4EFEB3
:100D2D00ED4FFF9002CEEEF0A3EFF0A21AE4FE33EA
:100D3D0054017803C333CE33CED8F9FF9002CEE001
:100D4D00FCA3E054F7FDEC4EFEED4FFF9002CEEE0E
:100D5D00F0A3EFF0A213E4335401C4F8540FC868A4
:100D6D00FFE4C454F048FE9002CEE0FCA3E054EF43
:100D7D00FDEC4EFEED4FFF9002CEEEF0A3EFF0A294
:100D8D0011E4FE3354017805C333CE33CED8F9FFC9
:100D9D009002CEE0FCA3E054DFFDEC4EFEED4FFFE4
:100DAD009002CEEEF0A3EFF0A212E4FE33540178E0
:100DBD0006C333CE33CED8F9FF9002CEE0FCA3E0CC
:100DCD0054BFFDEC4EFEED4FFF9002CEEEF0A3EFC3
:100DDD00F0A210E4FE3354017807C333CE33CED8DE
:100DED00F9FF9002CEE0FCA3E0547FFDEC4EFEED4A
:100DFD004FFF9002CEEEF0A3EFF0A21BE4335401AF
:100E0D00FE9002CEE054FEFCA3E0FDEC4EFFED9013
:100E1D0002CECFF0A3EFF0A21CE433540125E0FE87
:100E2D009002CEE054FDFCA3E0FDEC4EFFED9002F0
:100E3D00CECFF0A3EFF090027EE0540125E025E047
:100E4D00FE9002CEE054FBFCA3E0FDEC4EFFED90D6
:100E5D0002CECFF0A3EFF090027BE0540133333399
:100E6D0054F8FE9002CEE054F7FCA3E0FDEC4EFFEB
:100E7D00ED9002CECFF0A3EFF0A218E4335401C4ED
:100E8D0054F0FE9002CEE054EFFCA3E0FDEC4EFFDB
:100E9D00ED9002CECFF0A3EFF0A216E4335401C4CF
:100EAD003354E0FE9002CEE054DFFCA3E0FDEC4EA7
:100EBD00FFED9002CECFF0A3EFF090027DE0540154
:100ECD00C4333354C0FE9002CEE054BFFCA3E0FD0A
:100EDD00EC4EFFED9002CECFF0A3EFF090027CE050
:100EED005401C43333335480FE9002CEE0547FFC62
:100EFD00A3E0FDEC4EFFED9002CECFF0A3EFF0900E
:100F0D0003E2E004F0C394055003021043C2B5C2DE
:100F1D00A6C2A7C287E4F09002EEE094104002E46E
:100F2D00F09002EEE0FF74017E00A807088005C373
:100F3D0033CE33CED8F9FF9002CEE05EFEA3E05F54
:100F4D00FF9002EEE004F0EF8EF0120C140F9E00F5
:100F5D00010FA700020FB000040FB900080FC20067
:100F6D00100FCB00200FD400400FDD00800FE601E5
:100F7D00000FEF02000FF8040010010800100A1016
:100F8D000010132000101C400010258000000010E0
:100F9D003BC2B5C2A6C2A7B28722C2B5C2A6B2A72E
:100FAD00C28722C2B5C2A6B2A7B28722C2B5B2A667
:100FBD00C2A7C28722C2B5B2A6C2A7B28722C2B546
:100FCD00B2A6B2A7C28722C2B5B2A6B2A7B2872275
:100FDD00B2B5C2A6C2A7C28722B2B5C2A6C2A7B277
:100FED008722B2B5C2A6B2A7C28722B2B5C2A6B237
:100FFD00A7B28722B2B5B2A6C2A7C28722B2B5B236
:10100D00A6C2A7B28722B2B5B2A6B2A7C28722B234
:10101D00B5B2A6B2A7B2872290033CE004F0C39408
:10102D00024013E4F0B2B5B2A6B2A7B28722C2B5A0
:06103D00C2A6C2A7C28793
:01104300228A
:105BBA0000000000000000000000000000000000DB
:105BCA0000000000000000000000000000000000CB
:045BDA0000000000C7
:105DFE007594AF75938075923175952975A60122AC
:10581200E4FDFC75949A75952975A601EF4490F5FF
:10582200917592310000759F00EF429F7593800041
:105832000000439301E59330E0030080F853933F67
:0F584200EF4480F591AF97EFAD96FCEDAE04FF0C
:015851002234
:05307F0090022DEDF0B0
:10308400E4A3F0A3F090022DE024FFFFE434FFFE5C
:10309400C390022FE09FEE6480F890022EE06480DB
:1030A4009840030231A1E4900230F0A3F090022D85
:1030B400E024FFFFE434FFFEA3E0FCA3E0FDC3EF44
:1030C4009DFFEE9CFEA3E0FCA3E0FDC39FEE6480A5
:1030D400F8EC6480984003023190ED2401FFE43C55
:1030E400FEEF25E0FFEE338F82F5831209C0FDACBD
:1030F400F0900231E025E0FF900230E0338F82F55A
:10310400831209C0D39DE5F09C4070900230E0FC2E
:10311400A3E0FD25E0FFEC338F82F5831209C0FFA5
:10312400900232E5F0F0A3EFF0ED2401FFE43CFE61
:10313400EF25E0FFEE338F82F5831209C0FD900284
:1031440031E025E0FF900230E0338F82F583E5F033
:103154008DF01209F8900232E0FCA3E0FD900231F8
:10316400E02401FF900230E03400FEEF25E0FFEEA2
:10317400338F82F583EC8DF01209F8900231E0046C
:10318400F07006900230E004F00230B190022FE0BB
:0D31940004F0700690022EE004F002308975
:0131A100220B
:05485000900204EFF0EE
:10485500E4A3F0A3F0A3F0A3F078097C027D017B2B
:10486500FF7A5B79BAFE7F241208B8E4FB90020454
:10487500E0FF125812EB25E02409F582E43402F535
:1048850083EEF0A3EFF00BEBB412E27B017A027931
:10489500097D1212307FEB25E02409F582E434020C
:1048A500F583E0FEA3E0FF900206E02FF0900205FD
:1048B500E03EF00BEBB411DE900205E0C4F854F0D5
:0A48C500C868FEA3E0C4540F48FFCA
:0148CF0022C6
:1018D1004102C6004102C5004102C8004102C900DF
:0418E1004102C700F9
:095E670020A3037FFE227FFF222D
:105D7900125E67EFF4FD9002C5E06D5DA3F0AF051B
:055D89009002C5EFF0DF
:015D8E0022F2
:1055A8009002C6E030E0149002C9E0FF800090024B
:1055B800C9E004F0D394034002E4F09002C6E0701E
:1055C800047F0180027F009002C5E05F30E0089010
:1055D80002C8E004F08005E49002C8F09002C8E038
:0955E800C394034003125E70221B
:075E7800125D791255A8220A
:10F40000C2AF75819F75B2080000000000000000C7
:10F4100043B204E4900496F0900400F0A3F0A3F04B
:10F42000A3F0900497F07580F275E9C275E18175DB
:10F430009850759DFF759C64759E04759A0A759B1E
:10F44000FFE4F5B120980302F4D4900496E0240080
:10F45000F582E43404F583E599F0900496E004F035
:10F46000900400E0659A600BE4900496F09004012B
:10F47000F0805F900401E0FF64557040900403E069
:10F480002403FDE433FC900496E0D39DEC6480F803
:10F49000748098403DE4F090049704F0900408E0F4
:10F4A000B4490BA3E0B45306A3E064506007C29CC8
:10F4B0007599FF801DC29C75995A8016900496E03C
:10F4C000FED39402400CEE9F400812F509E490042C
:10F4D00096F0C29820990302F441900496E004F05B
:10F4E000900497E0FF900496E0FEC39F4006D29CF4
:10F4F000E4F0800FC29C74002EF582E43404F5839E
:09F50000E0F599C29902F44122E0
:10F50900900402E0F4600302F7BA900404E064494D
:10F51900600302F7BAA3E06453600302F7BAA3E0F9
:10F529006450600302F7BA900403E0FD64FE70754D
:10F53900900407E0F5A7753602753700A3E0FF25AB
:10F54900E0F5F775F2E675F30575F40A75F50975D1
:10F55900F6060000000075315AE4F532F533C3E5CB
:10F56900339537E5329536502AE4F5B1900408E031
:10F579007F0025E0FEEF2533FFE5323E8F82F583DC
:10F58900E49360057531FF800A0533E533700205A0
:10F599003280CBE4900496F090049704F0C29C85E5
:10F5A900319902F7BAED64FD600302F63CF530F5D6
:10F5B9002FE4F5B1740A252FF582E43404F583E0CC
:10F5C9002530F530052FE52FB440E6740A252FF5CF
:10F5D90082E43404F583E0653060057531FF8041CC
:10F5E900900407E0F5A7A3E0F5F7A3E0F5FBE4F540
:10F5F9002FE4F5B1740A252FF582E43404F583E08C
:10F60900F5FC75F26E75F30575F40A75F50975F66D
:10F61900060000000005FB052FE52FB440D3753126
:10F629005AE4900496F090049704F0C29C853199AD
:10F6390002F7BA900403E0FD64FB600302F6D0F51B
:10F6490038F539900407E0F5A7A3E0FFF5F7EFFED9
:10F65900A3E0FBEEF534EBF535A3E0FEA3E0FBEE0A
:10F66900F536EBF537E4F532F533C3E5339537E590
:10F679003295365025E4F5B1E5352533FFE53435C6
:10F68900328F82F583E4932539F539E43538F53835
:10F699000533E5337002053280D0E4900496F0908A
:10F6A900049704F090040CE0FEA3E0FBEEEB65394F
